{
  "_format": "hh3-artifact-1",
  "contractName": "ToDoList",
  "sourceName": "contracts/ToDoList.sol",
  "abi": [
    {
      "inputs": [],
      "stateMutability": "nonpayable",
      "type": "constructor"
    },
    {
      "anonymous": false,
      "inputs": [
        {
          "indexed": true,
          "internalType": "address",
          "name": "user",
          "type": "address"
        },
        {
          "indexed": false,
          "internalType": "uint256",
          "name": "taskId",
          "type": "uint256"
        }
      ],
      "name": "TaskAdded",
      "type": "event"
    },
    {
      "anonymous": false,
      "inputs": [
        {
          "indexed": true,
          "internalType": "address",
          "name": "user",
          "type": "address"
        },
        {
          "indexed": false,
          "internalType": "uint256",
          "name": "taskId",
          "type": "uint256"
        }
      ],
      "name": "TaskCompleted",
      "type": "event"
    },
    {
      "anonymous": false,
      "inputs": [
        {
          "indexed": true,
          "internalType": "address",
          "name": "user",
          "type": "address"
        },
        {
          "indexed": false,
          "internalType": "uint256",
          "name": "taskId",
          "type": "uint256"
        }
      ],
      "name": "TaskDeleted",
      "type": "event"
    },
    {
      "inputs": [
        {
          "internalType": "string",
          "name": "_title",
          "type": "string"
        },
        {
          "internalType": "uint256",
          "name": "_deadline",
          "type": "uint256"
        }
      ],
      "name": "addTask",
      "outputs": [],
      "stateMutability": "nonpayable",
      "type": "function"
    },
    {
      "inputs": [
        {
          "internalType": "uint256",
          "name": "_taskId",
          "type": "uint256"
        }
      ],
      "name": "deleteTask",
      "outputs": [],
      "stateMutability": "nonpayable",
      "type": "function"
    },
    {
      "inputs": [],
      "name": "getTasks",
      "outputs": [
        {
          "components": [
            {
              "internalType": "uint256",
              "name": "id",
              "type": "uint256"
            },
            {
              "internalType": "string",
              "name": "title",
              "type": "string"
            },
            {
              "internalType": "bool",
              "name": "isCompleted",
              "type": "bool"
            },
            {
              "internalType": "uint256",
              "name": "deadline",
              "type": "uint256"
            }
          ],
          "internalType": "struct Task[]",
          "name": "",
          "type": "tuple[]"
        }
      ],
      "stateMutability": "view",
      "type": "function"
    },
    {
      "inputs": [
        {
          "internalType": "uint256",
          "name": "_taskId",
          "type": "uint256"
        }
      ],
      "name": "markCompleted",
      "outputs": [],
      "stateMutability": "nonpayable",
      "type": "function"
    }
  ],
  "bytecode": "0x6080604052348015600e575f5ffd5b5061124f8061001c5f395ff3fe608060405234801561000f575f5ffd5b506004361061004a575f3560e01c806304a87e381461004e5780633143d0821461006c578063560f319214610088578063cac5c512146100a4575b5f5ffd5b6100566100c0565b6040516100639190610bdc565b60405180910390f35b61008660048036038101906100819190610c8f565b6102db565b005b6100a2600480360381019061009d9190610cec565b61050e565b005b6100be60048036038101906100b99190610cec565b610824565b005b60605f60015f3373ffffffffffffffffffffffffffffffffffffffff1673ffffffffffffffffffffffffffffffffffffffff1681526020019081526020015f2080548060200260200160405190810160405280929190818152602001828054801561014857602002820191905f5260205f20905b815481526020019060010190808311610134575b505050505090505f815167ffffffffffffffff81111561016b5761016a610d17565b5b6040519080825280602002602001820160405280156101a457816020015b6101916109a0565b8152602001906001900390816101895790505b5090505f5f90505b82518110156102d2575f5f8483815181106101ca576101c9610d44565b5b602002602001015181526020019081526020015f206040518060800160405290815f820154815260200160018201805461020390610d9e565b80601f016020809104026020016040519081016040528092919081815260200182805461022f90610d9e565b801561027a5780601f106102515761010080835404028352916020019161027a565b820191905f5260205f20905b81548152906001019060200180831161025d57829003601f168201915b50505050508152602001600282015f9054906101000a900460ff161515151581526020016003820154815250508282815181106102ba576102b9610d44565b5b602002602001018190525080806001019150506101ac565b50809250505090565b5f60045f8154809291906102ee90610dfb565b919050559050604051806080016040528082815260200185858080601f0160208091040260200160405190810160405280939291908181526020018383808284375f81840152601f19601f8201169050808301925050505050505081526020015f15158152602001838152505f5f8381526020019081526020015f205f820151815f015560208201518160010190816103879190610fe2565b506040820151816002015f6101000a81548160ff0219169083151502179055506060820151816003015590505060015f3373ffffffffffffffffffffffffffffffffffffffff1673ffffffffffffffffffffffffffffffffffffffff1681526020019081526020015f208054905060025f8381526020019081526020015f208190555060015f3373ffffffffffffffffffffffffffffffffffffffff1673ffffffffffffffffffffffffffffffffffffffff1681526020019081526020015f2081908060018154018082558091505060019003905f5260205f20015f90919091909150553360035f8381526020019081526020015f205f6101000a81548173ffffffffffffffffffffffffffffffffffffffff021916908373ffffffffffffffffffffffffffffffffffffffff1602179055503373ffffffffffffffffffffffffffffffffffffffff167ff2ba834cb120f28cac9129d80d6990b8d99d9a0a71487cec7d88bd8a2ba45cb98260405161050091906110c0565b60405180910390a250505050565b803373ffffffffffffffffffffffffffffffffffffffff1660035f8381526020019081526020015f205f9054906101000a900473ffffffffffffffffffffffffffffffffffffffff1673ffffffffffffffffffffffffffffffffffffffff16146105ad576040517f08c379a00000000000000000000000000000000000000000000000000000000081526004016105a490611133565b60405180910390fd5b5f60025f8481526020019081526020015f205490505f6001805f3373ffffffffffffffffffffffffffffffffffffffff1673ffffffffffffffffffffffffffffffffffffffff1681526020019081526020015f208054905061060f9190611151565b90508082146106e7575f60015f3373ffffffffffffffffffffffffffffffffffffffff1673ffffffffffffffffffffffffffffffffffffffff1681526020019081526020015f20828154811061066857610667610d44565b5b905f5260205f20015490508060015f3373ffffffffffffffffffffffffffffffffffffffff1673ffffffffffffffffffffffffffffffffffffffff1681526020019081526020015f2084815481106106c3576106c2610d44565b5b905f5260205f2001819055508260025f8381526020019081526020015f2081905550505b60015f3373ffffffffffffffffffffffffffffffffffffffff1673ffffffffffffffffffffffffffffffffffffffff1681526020019081526020015f2080548061073457610733611184565b5b600190038181905f5260205f20015f905590555f5f8581526020019081526020015f205f5f82015f9055600182015f61076d91906109c7565b600282015f6101000a81549060ff0219169055600382015f9055505060025f8581526020019081526020015f205f905560035f8581526020019081526020015f205f6101000a81549073ffffffffffffffffffffffffffffffffffffffff02191690553373ffffffffffffffffffffffffffffffffffffffff167fd1bc87501afcaa22b7f6481dac99ed45fbe02321873ca9b55c1f41b9d78b8fb38560405161081691906110c0565b60405180910390a250505050565b803373ffffffffffffffffffffffffffffffffffffffff1660035f8381526020019081526020015f205f9054906101000a900473ffffffffffffffffffffffffffffffffffffffff1673ffffffffffffffffffffffffffffffffffffffff16146108c3576040517f08c379a00000000000000000000000000000000000000000000000000000000081526004016108ba90611133565b60405180910390fd5b5f5f8381526020019081526020015f206002015f9054906101000a900460ff1615610923576040517f08c379a000000000000000000000000000000000000000000000000000000000815260040161091a906111fb565b60405180910390fd5b60015f5f8481526020019081526020015f206002015f6101000a81548160ff0219169083151502179055503373ffffffffffffffffffffffffffffffffffffffff167ff684d89bb0f42287bf32838774e4b7f8a60c11804b3c6d1791fa55f3067926438360405161099491906110c0565b60405180910390a25050565b60405180608001604052805f8152602001606081526020015f151581526020015f81525090565b5080546109d390610d9e565b5f825580601f106109e45750610a01565b601f0160209004905f5260205f2090810190610a009190610a04565b5b50565b5b80821115610a1b575f815f905550600101610a05565b5090565b5f81519050919050565b5f82825260208201905092915050565b5f819050602082019050919050565b5f819050919050565b610a5a81610a48565b82525050565b5f81519050919050565b5f82825260208201905092915050565b8281835e5f83830152505050565b5f601f19601f8301169050919050565b5f610aa282610a60565b610aac8185610a6a565b9350610abc818560208601610a7a565b610ac581610a88565b840191505092915050565b5f8115159050919050565b610ae481610ad0565b82525050565b5f608083015f830151610aff5f860182610a51565b5060208301518482036020860152610b178282610a98565b9150506040830151610b2c6040860182610adb565b506060830151610b3f6060860182610a51565b508091505092915050565b5f610b558383610aea565b905092915050565b5f602082019050919050565b5f610b7382610a1f565b610b7d8185610a29565b935083602082028501610b8f85610a39565b805f5b85811015610bca5784840389528151610bab8582610b4a565b9450610bb683610b5d565b925060208a01995050600181019050610b92565b50829750879550505050505092915050565b5f6020820190508181035f830152610bf48184610b69565b905092915050565b5f5ffd5b5f5ffd5b5f5ffd5b5f5ffd5b5f5ffd5b5f5f83601f840112610c2557610c24610c04565b5b8235905067ffffffffffffffff811115610c4257610c41610c08565b5b602083019150836001820283011115610c5e57610c5d610c0c565b5b9250929050565b610c6e81610a48565b8114610c78575f5ffd5b50565b5f81359050610c8981610c65565b92915050565b5f5f5f60408486031215610ca657610ca5610bfc565b5b5f84013567ffffffffffffffff811115610cc357610cc2610c00565b5b610ccf86828701610c10565b93509350506020610ce286828701610c7b565b9150509250925092565b5f60208284031215610d0157610d00610bfc565b5b5f610d0e84828501610c7b565b91505092915050565b7f4e487b71000000000000000000000000000000000000000000000000000000005f52604160045260245ffd5b7f4e487b71000000000000000000000000000000000000000000000000000000005f52603260045260245ffd5b7f4e487b71000000000000000000000000000000000000000000000000000000005f52602260045260245ffd5b5f6002820490506001821680610db557607f821691505b602082108103610dc857610dc7610d71565b5b50919050565b7f4e487b71000000000000000000000000000000000000000000000000000000005f52601160045260245ffd5b5f610e0582610a48565b91507fffffffffffffffffffffffffffffffffffffffffffffffffffffffffffffffff8203610e3757610e36610dce565b5b600182019050919050565b5f819050815f5260205f209050919050565b5f6020601f8301049050919050565b5f82821b905092915050565b5f60088302610e9e7fffffffffffffffffffffffffffffffffffffffffffffffffffffffffffffffff82610e63565b610ea88683610e63565b95508019841693508086168417925050509392505050565b5f819050919050565b5f610ee3610ede610ed984610a48565b610ec0565b610a48565b9050919050565b5f819050919050565b610efc83610ec9565b610f10610f0882610eea565b848454610e6f565b825550505050565b5f5f905090565b610f27610f18565b610f32818484610ef3565b505050565b5b81811015610f5557610f4a5f82610f1f565b600181019050610f38565b5050565b601f821115610f9a57610f6b81610e42565b610f7484610e54565b81016020851015610f83578190505b610f97610f8f85610e54565b830182610f37565b50505b505050565b5f82821c905092915050565b5f610fba5f1984600802610f9f565b1980831691505092915050565b5f610fd28383610fab565b9150826002028217905092915050565b610feb82610a60565b67ffffffffffffffff81111561100457611003610d17565b5b61100e8254610d9e565b611019828285610f59565b5f60209050601f83116001811461104a575f8415611038578287015190505b6110428582610fc7565b8655506110a9565b601f19841661105886610e42565b5f5b8281101561107f5784890151825560018201915060208501945060208101905061105a565b8683101561109c5784890151611098601f891682610fab565b8355505b6001600288020188555050505b505050505050565b6110ba81610a48565b82525050565b5f6020820190506110d35f8301846110b1565b92915050565b5f82825260208201905092915050565b7f5461736b206e6f7420666f756e64206f72206163636573732064656e696564005f82015250565b5f61111d601f836110d9565b9150611128826110e9565b602082019050919050565b5f6020820190508181035f83015261114a81611111565b9050919050565b5f61115b82610a48565b915061116683610a48565b925082820390508181111561117e5761117d610dce565b5b92915050565b7f4e487b71000000000000000000000000000000000000000000000000000000005f52603160045260245ffd5b7f416c726561647920636f6d706c657465640000000000000000000000000000005f82015250565b5f6111e56011836110d9565b91506111f0826111b1565b602082019050919050565b5f6020820190508181035f830152611212816111d9565b905091905056fea2646970667358221220022af042ceae3d02252c5bf9e4583da1798cc833acc0e292bc159f7ccb7b101164736f6c634300081c0033",
  "linkReferences": {},
  "deployedLinkReferences": {},
  "immutableReferences": {},
  "inputSourceName": "project/contracts/ToDoList.sol",
  "buildInfoId": "solc-0_8_28-175280571f620ed5711d3c57ad09a19d12cf32ac"
}